{
  "_format": "hh-sol-artifact-1",
  "contractName": "voting",
  "sourceName": "contracts/voting.sol",
  "abi": [
    {
      "inputs": [],
      "stateMutability": "nonpayable",
      "type": "constructor"
    },
    {
      "inputs": [
        {
          "internalType": "string",
          "name": "_name",
          "type": "string"
        }
      ],
      "name": "add_candidate",
      "outputs": [],
      "stateMutability": "nonpayable",
      "type": "function"
    },
    {
      "inputs": [
        {
          "internalType": "uint256",
          "name": "",
          "type": "uint256"
        }
      ],
      "name": "candidates",
      "outputs": [
        {
          "internalType": "uint256",
          "name": "id",
          "type": "uint256"
        },
        {
          "internalType": "string",
          "name": "name",
          "type": "string"
        },
        {
          "internalType": "uint256",
          "name": "number_of_votes",
          "type": "uint256"
        }
      ],
      "stateMutability": "view",
      "type": "function"
    },
    {
      "inputs": [],
      "name": "check_election_period",
      "outputs": [
        {
          "internalType": "bool",
          "name": "",
          "type": "bool"
        }
      ],
      "stateMutability": "nonpayable",
      "type": "function"
    },
    {
      "inputs": [],
      "name": "election_started",
      "outputs": [
        {
          "internalType": "bool",
          "name": "",
          "type": "bool"
        }
      ],
      "stateMutability": "view",
      "type": "function"
    },
    {
      "inputs": [],
      "name": "election_timer",
      "outputs": [
        {
          "internalType": "uint256",
          "name": "",
          "type": "uint256"
        }
      ],
      "stateMutability": "view",
      "type": "function"
    },
    {
      "inputs": [
        {
          "internalType": "uint256",
          "name": "",
          "type": "uint256"
        }
      ],
      "name": "list_of_voters",
      "outputs": [
        {
          "internalType": "address",
          "name": "",
          "type": "address"
        }
      ],
      "stateMutability": "view",
      "type": "function"
    },
    {
      "inputs": [],
      "name": "owner",
      "outputs": [
        {
          "internalType": "address",
          "name": "",
          "type": "address"
        }
      ],
      "stateMutability": "view",
      "type": "function"
    },
    {
      "inputs": [],
      "name": "reset_all_voters_status",
      "outputs": [],
      "stateMutability": "nonpayable",
      "type": "function"
    },
    {
      "inputs": [],
      "name": "retrieve_votes",
      "outputs": [
        {
          "components": [
            {
              "internalType": "uint256",
              "name": "id",
              "type": "uint256"
            },
            {
              "internalType": "string",
              "name": "name",
              "type": "string"
            },
            {
              "internalType": "uint256",
              "name": "number_of_votes",
              "type": "uint256"
            }
          ],
          "internalType": "struct voting.Candidate[]",
          "name": "",
          "type": "tuple[]"
        }
      ],
      "stateMutability": "view",
      "type": "function"
    },
    {
      "inputs": [
        {
          "internalType": "string[]",
          "name": "_candidates",
          "type": "string[]"
        },
        {
          "internalType": "uint256",
          "name": "_voting_duration",
          "type": "uint256"
        }
      ],
      "name": "start_election",
      "outputs": [],
      "stateMutability": "nonpayable",
      "type": "function"
    },
    {
      "inputs": [
        {
          "internalType": "uint256",
          "name": "_id",
          "type": "uint256"
        }
      ],
      "name": "vote_to",
      "outputs": [],
      "stateMutability": "nonpayable",
      "type": "function"
    },
    {
      "inputs": [
        {
          "internalType": "address",
          "name": "_voter",
          "type": "address"
        }
      ],
      "name": "voter_status",
      "outputs": [
        {
          "internalType": "bool",
          "name": "",
          "type": "bool"
        }
      ],
      "stateMutability": "view",
      "type": "function"
    },
    {
      "inputs": [
        {
          "internalType": "address",
          "name": "",
          "type": "address"
        }
      ],
      "name": "voters",
      "outputs": [
        {
          "internalType": "bool",
          "name": "",
          "type": "bool"
        }
      ],
      "stateMutability": "view",
      "type": "function"
    },
    {
      "inputs": [],
      "name": "voting_end",
      "outputs": [
        {
          "internalType": "uint256",
          "name": "",
          "type": "uint256"
        }
      ],
      "stateMutability": "view",
      "type": "function"
    },
    {
      "inputs": [],
      "name": "voting_start",
      "outputs": [
        {
          "internalType": "uint256",
          "name": "",
          "type": "uint256"
        }
      ],
      "stateMutability": "view",
      "type": "function"
    }
  ],
  "bytecode": "0x6080604052348015600f57600080fd5b5033600160006101000a81548173ffffffffffffffffffffffffffffffffffffffff021916908373ffffffffffffffffffffffffffffffffffffffff160217905550611bed806100606000396000f3fe608060405234801561001057600080fd5b50600436106100f55760003560e01c80638da5cb5b11610097578063d0f60c4411610066578063d0f60c4414610278578063df44f59614610294578063ea42fa63146102c4578063ec9e3aab146102e2576100f5565b80638da5cb5b146101f0578063a3ec138d1461020e578063be577ba31461023e578063d062f0341461025c576100f5565b806367adfe6d116100d357806367adfe6d1461016857806376a4a2c2146101845780637d403c77146101a257806387df4995146101d2576100f5565b80633477ee2e146100fa5780633fd1a5e61461012c578063406d87f81461014a575b600080fd5b610114600480360381019061010f9190610ec4565b6102ec565b60405161012393929190610f90565b60405180910390f35b6101346103ae565b6040516101419190610fe9565b60405180910390f35b6101526103c1565b60405161015f9190611004565b60405180910390f35b610182600480360381019061017d9190610ec4565b610438565b005b61018c610654565b6040516101999190611004565b60405180910390f35b6101bc60048036038101906101b7919061107d565b61065a565b6040516101c99190610fe9565b60405180910390f35b6101da6106ff565b6040516101e79190611004565b60405180910390f35b6101f8610705565b60405161020591906110b9565b60405180910390f35b6102286004803603810190610223919061107d565b61072b565b6040516102359190610fe9565b60405180910390f35b61024661074b565b6040516102539190610fe9565b60405180910390f35b610276600480360381019061027191906112ef565b610788565b005b610292600480360381019061028d919061134b565b610968565b005b6102ae60048036038101906102a99190610ec4565b610b09565b6040516102bb91906110b9565b60405180910390f35b6102cc610b48565b6040516102d991906114ff565b60405180910390f35b6102ea610c4d565b005b600081815481106102fc57600080fd5b906000526020600020906003020160009150905080600001549080600101805461032590611550565b80601f016020809104026020016040519081016040528092919081815260200182805461035190611550565b801561039e5780601f106103735761010080835404028352916020019161039e565b820191906000526020600020905b81548152906001019060200180831161038157829003601f168201915b5050505050908060020154905083565b600660009054906101000a900460ff1681565b6000600660009054906101000a900460ff16610412576040517f08c379a0000000000000000000000000000000000000000000000000000000008152600401610409906115cd565b60405180910390fd5b60055442106104245760009050610435565b42600554610432919061161c565b90505b90565b600660009054906101000a900460ff16610487576040517f08c379a000000000000000000000000000000000000000000000000000000000815260040161047e906115cd565b60405180910390fd5b61048f61074b565b6104ce576040517f08c379a00000000000000000000000000000000000000000000000000000000081526004016104c59061169c565b60405180910390fd5b600260003373ffffffffffffffffffffffffffffffffffffffff1673ffffffffffffffffffffffffffffffffffffffff16815260200190815260200160002060009054906101000a900460ff161561055b576040517f08c379a00000000000000000000000000000000000000000000000000000000081526004016105529061172e565b60405180910390fd5b6000818154811061056f5761056e61174e565b5b906000526020600020906003020160020160008154809291906105919061177d565b91905055506001600260003373ffffffffffffffffffffffffffffffffffffffff1673ffffffffffffffffffffffffffffffffffffffff16815260200190815260200160002060006101000a81548160ff0219169083151502179055506003339080600181540180825580915050600190039060005260206000200160009091909190916101000a81548173ffffffffffffffffffffffffffffffffffffffff021916908373ffffffffffffffffffffffffffffffffffffffff16021790555050565b60045481565b6000600660009054906101000a900460ff166106ab576040517f08c379a00000000000000000000000000000000000000000000000000000000081526004016106a2906115cd565b60405180910390fd5b600260008373ffffffffffffffffffffffffffffffffffffffff1673ffffffffffffffffffffffffffffffffffffffff16815260200190815260200160002060009054906101000a900460ff169050919050565b60055481565b600160009054906101000a900473ffffffffffffffffffffffffffffffffffffffff1681565b60026020528060005260406000206000915054906101000a900460ff1681565b6000806107566103c1565b11156107655760019050610785565b6000600660006101000a81548160ff021916908315150217905550600090505b90565b600160009054906101000a900473ffffffffffffffffffffffffffffffffffffffff1673ffffffffffffffffffffffffffffffffffffffff163373ffffffffffffffffffffffffffffffffffffffff1614610818576040517f08c379a000000000000000000000000000000000000000000000000000000000815260040161080f90611837565b60405180910390fd5b600660009054906101000a900460ff1615610868576040517f08c379a000000000000000000000000000000000000000000000000000000000815260040161085f906118a3565b60405180910390fd5b6000806108759190610da1565b61087d610c4d565b60005b825181101561092357600060405180606001604052808381526020018584815181106108af576108ae61174e565b5b60200260200101518152602001600081525090806001815401808255809150506001900390600052602060002090600302016000909190919091506000820151816000015560208201518160010190816109099190611a6f565b506040820151816002015550508080600101915050610880565b506001600660006101000a81548160ff02191690831515021790555042600481905550603c816109539190611b41565b4261095e9190611b83565b6005819055505050565b600160009054906101000a900473ffffffffffffffffffffffffffffffffffffffff1673ffffffffffffffffffffffffffffffffffffffff163373ffffffffffffffffffffffffffffffffffffffff16146109f8576040517f08c379a00000000000000000000000000000000000000000000000000000000081526004016109ef90611837565b60405180910390fd5b600660009054906101000a900460ff16610a47576040517f08c379a0000000000000000000000000000000000000000000000000000000008152600401610a3e906115cd565b60405180910390fd5b610a4f61074b565b610a8e576040517f08c379a0000000000000000000000000000000000000000000000000000000008152600401610a859061169c565b60405180910390fd5b60006040518060600160405280600080549050815260200183815260200160008152509080600181540180825580915050600190039060005260206000209060030201600090919091909150600082015181600001556020820151816001019081610af99190611a6f565b5060408201518160020155505050565b60038181548110610b1957600080fd5b906000526020600020016000915054906101000a900473ffffffffffffffffffffffffffffffffffffffff1681565b60606000805480602002602001604051908101604052809291908181526020016000905b82821015610c44578382906000526020600020906003020160405180606001604052908160008201548152602001600182018054610ba990611550565b80601f0160208091040260200160405190810160405280929190818152602001828054610bd590611550565b8015610c225780601f10610bf757610100808354040283529160200191610c22565b820191906000526020600020905b815481529060010190602001808311610c0557829003601f168201915b5050505050815260200160028201548152505081526020019060010190610b6c565b50505050905090565b600160009054906101000a900473ffffffffffffffffffffffffffffffffffffffff1673ffffffffffffffffffffffffffffffffffffffff163373ffffffffffffffffffffffffffffffffffffffff1614610cdd576040517f08c379a0000000000000000000000000000000000000000000000000000000008152600401610cd490611837565b60405180910390fd5b60005b600380549050811015610d905760006002600060038481548110610d0757610d0661174e565b5b9060005260206000200160009054906101000a900473ffffffffffffffffffffffffffffffffffffffff1673ffffffffffffffffffffffffffffffffffffffff1673ffffffffffffffffffffffffffffffffffffffff16815260200190815260200160002060006101000a81548160ff0219169083151502179055508080600101915050610ce0565b5060036000610d9f9190610dc5565b565b5080546000825560030290600052602060002090810190610dc29190610de6565b50565b5080546000825590600052602060002090810190610de39190610e1d565b50565b5b80821115610e1957600080820160009055600182016000610e089190610e3a565b600282016000905550600301610de7565b5090565b5b80821115610e36576000816000905550600101610e1e565b5090565b508054610e4690611550565b6000825580601f10610e585750610e77565b601f016020900490600052602060002090810190610e769190610e1d565b5b50565b6000604051905090565b600080fd5b600080fd5b6000819050919050565b610ea181610e8e565b8114610eac57600080fd5b50565b600081359050610ebe81610e98565b92915050565b600060208284031215610eda57610ed9610e84565b5b6000610ee884828501610eaf565b91505092915050565b610efa81610e8e565b82525050565b600081519050919050565b600082825260208201905092915050565b60005b83811015610f3a578082015181840152602081019050610f1f565b60008484015250505050565b6000601f19601f8301169050919050565b6000610f6282610f00565b610f6c8185610f0b565b9350610f7c818560208601610f1c565b610f8581610f46565b840191505092915050565b6000606082019050610fa56000830186610ef1565b8181036020830152610fb78185610f57565b9050610fc66040830184610ef1565b949350505050565b60008115159050919050565b610fe381610fce565b82525050565b6000602082019050610ffe6000830184610fda565b92915050565b60006020820190506110196000830184610ef1565b92915050565b600073ffffffffffffffffffffffffffffffffffffffff82169050919050565b600061104a8261101f565b9050919050565b61105a8161103f565b811461106557600080fd5b50565b60008135905061107781611051565b92915050565b60006020828403121561109357611092610e84565b5b60006110a184828501611068565b91505092915050565b6110b38161103f565b82525050565b60006020820190506110ce60008301846110aa565b92915050565b600080fd5b7f4e487b7100000000000000000000000000000000000000000000000000000000600052604160045260246000fd5b61111182610f46565b810181811067ffffffffffffffff821117156111305761112f6110d9565b5b80604052505050565b6000611143610e7a565b905061114f8282611108565b919050565b600067ffffffffffffffff82111561116f5761116e6110d9565b5b602082029050602081019050919050565b600080fd5b600080fd5b600067ffffffffffffffff8211156111a5576111a46110d9565b5b6111ae82610f46565b9050602081019050919050565b82818337600083830152505050565b60006111dd6111d88461118a565b611139565b9050828152602081018484840111156111f9576111f8611185565b5b6112048482856111bb565b509392505050565b600082601f830112611221576112206110d4565b5b81356112318482602086016111ca565b91505092915050565b600061124d61124884611154565b611139565b905080838252602082019050602084028301858111156112705761126f611180565b5b835b818110156112b757803567ffffffffffffffff811115611295576112946110d4565b5b8086016112a2898261120c565b85526020850194505050602081019050611272565b5050509392505050565b600082601f8301126112d6576112d56110d4565b5b81356112e684826020860161123a565b91505092915050565b6000806040838503121561130657611305610e84565b5b600083013567ffffffffffffffff81111561132457611323610e89565b5b611330858286016112c1565b925050602061134185828601610eaf565b9150509250929050565b60006020828403121561136157611360610e84565b5b600082013567ffffffffffffffff81111561137f5761137e610e89565b5b61138b8482850161120c565b91505092915050565b600081519050919050565b600082825260208201905092915050565b6000819050602082019050919050565b6113c981610e8e565b82525050565b600082825260208201905092915050565b60006113eb82610f00565b6113f581856113cf565b9350611405818560208601610f1c565b61140e81610f46565b840191505092915050565b600060608301600083015161143160008601826113c0565b506020830151848203602086015261144982826113e0565b915050604083015161145e60408601826113c0565b508091505092915050565b60006114758383611419565b905092915050565b6000602082019050919050565b600061149582611394565b61149f818561139f565b9350836020820285016114b1856113b0565b8060005b858110156114ed57848403895281516114ce8582611469565b94506114d98361147d565b925060208a019950506001810190506114b5565b50829750879550505050505092915050565b60006020820190508181036000830152611519818461148a565b905092915050565b7f4e487b7100000000000000000000000000000000000000000000000000000000600052602260045260246000fd5b6000600282049050600182168061156857607f821691505b60208210810361157b5761157a611521565b5b50919050565b7f4e6f20656c656374696f6e205965740000000000000000000000000000000000600082015250565b60006115b7600f83610f0b565b91506115c282611581565b602082019050919050565b600060208201905081810360008301526115e6816115aa565b9050919050565b7f4e487b7100000000000000000000000000000000000000000000000000000000600052601160045260246000fd5b600061162782610e8e565b915061163283610e8e565b925082820390508181111561164a576116496115ed565b5b92915050565b7f456c656374696f6e20506572696f642048617320456e64656400000000000000600082015250565b6000611686601983610f0b565b915061169182611650565b602082019050919050565b600060208201905081810360008301526116b581611679565b9050919050565b7f596f75204861766520416c726561647920566f7465642e20596f752043616e2060008201527f4f6e6c7920566f7465204f6e63652e0000000000000000000000000000000000602082015250565b6000611718602f83610f0b565b9150611723826116bc565b604082019050919050565b600060208201905081810360008301526117478161170b565b9050919050565b7f4e487b7100000000000000000000000000000000000000000000000000000000600052603260045260246000fd5b600061178882610e8e565b91507fffffffffffffffffffffffffffffffffffffffffffffffffffffffffffffffff82036117ba576117b96115ed565b5b600182019050919050565b7f596f7520417265204e6f7420415554484f52495a454420546f2073746172742060008201527f616e20656c656374696f6e000000000000000000000000000000000000000000602082015250565b6000611821602b83610f0b565b915061182c826117c5565b604082019050919050565b6000602082019050818103600083015261185081611814565b9050919050565b7f456c656374696f6e2069732063757272656e746c79206f6e676f696e67000000600082015250565b600061188d601d83610f0b565b915061189882611857565b602082019050919050565b600060208201905081810360008301526118bc81611880565b9050919050565b60008190508160005260206000209050919050565b60006020601f8301049050919050565b600082821b905092915050565b6000600883026119257fffffffffffffffffffffffffffffffffffffffffffffffffffffffffffffffff826118e8565b61192f86836118e8565b95508019841693508086168417925050509392505050565b6000819050919050565b600061196c61196761196284610e8e565b611947565b610e8e565b9050919050565b6000819050919050565b61198683611951565b61199a61199282611973565b8484546118f5565b825550505050565b600090565b6119af6119a2565b6119ba81848461197d565b505050565b5b818110156119de576119d36000826119a7565b6001810190506119c0565b5050565b601f821115611a23576119f4816118c3565b6119fd846118d8565b81016020851015611a0c578190505b611a20611a18856118d8565b8301826119bf565b50505b505050565b600082821c905092915050565b6000611a4660001984600802611a28565b1980831691505092915050565b6000611a5f8383611a35565b9150826002028217905092915050565b611a7882610f00565b67ffffffffffffffff811115611a9157611a906110d9565b5b611a9b8254611550565b611aa68282856119e2565b600060209050601f831160018114611ad95760008415611ac7578287015190505b611ad18582611a53565b865550611b39565b601f198416611ae7866118c3565b60005b82811015611b0f57848901518255600182019150602085019450602081019050611aea565b86831015611b2c5784890151611b28601f891682611a35565b8355505b6001600288020188555050505b505050505050565b6000611b4c82610e8e565b9150611b5783610e8e565b9250828202611b6581610e8e565b91508282048414831517611b7c57611b7b6115ed565b5b5092915050565b6000611b8e82610e8e565b9150611b9983610e8e565b9250828201905080821115611bb157611bb06115ed565b5b9291505056fea264697066735822122035bc7960a3fee274d62a80ccd6bd0abad8ab14cd82546e9d2ebbc531f919109564736f6c634300081b0033",
  "linkReferences": {},
  "deployedLinkReferences": {}
}